{
  "_format": "hh-sol-artifact-1",
  "contractName": "FMCW",
  "sourceName": "contracts/FMCW.sol",
  "abi": [
    {
      "inputs": [],
      "stateMutability": "nonpayable",
      "type": "constructor"
    },
    {
      "inputs": [
        {
          "internalType": "string",
          "name": "name",
          "type": "string"
        },
        {
          "internalType": "string",
          "name": "message",
          "type": "string"
        }
      ],
      "name": "fundFMCW",
      "outputs": [],
      "stateMutability": "payable",
      "type": "function"
    },
    {
      "inputs": [],
      "name": "getMemos",
      "outputs": [
        {
          "components": [
            {
              "internalType": "string",
              "name": "name",
              "type": "string"
            },
            {
              "internalType": "string",
              "name": "message",
              "type": "string"
            },
            {
              "internalType": "uint256",
              "name": "timestamp",
              "type": "uint256"
            },
            {
              "internalType": "address",
              "name": "from",
              "type": "address"
            }
          ],
          "internalType": "struct FMCW.Memo[]",
          "name": "",
          "type": "tuple[]"
        }
      ],
      "stateMutability": "view",
      "type": "function"
    },
    {
      "inputs": [],
      "name": "getOwner",
      "outputs": [
        {
          "internalType": "address",
          "name": "",
          "type": "address"
        }
      ],
      "stateMutability": "view",
      "type": "function"
    }
  ],
  "bytecode": "0x6080604052348015600f57600080fd5b5033600160006101000a81548173ffffffffffffffffffffffffffffffffffffffff021916908373ffffffffffffffffffffffffffffffffffffffff160217905550610bfd806100606000396000f3fe6080604052600436106100345760003560e01c8063865c517214610039578063893d20e814610064578063c89e98101461008f575b600080fd5b34801561004557600080fd5b5061004e6100ab565b60405161005b919061065f565b60405180910390f35b34801561007057600080fd5b5061007961028e565b6040516100869190610690565b60405180910390f35b6100a960048036038101906100a491906107f4565b6102b8565b005b60606000805480602002602001604051908101604052809291908181526020016000905b8282101561028557838290600052602060002090600402016040518060800160405290816000820180546101029061089b565b80601f016020809104026020016040519081016040528092919081815260200182805461012e9061089b565b801561017b5780601f106101505761010080835404028352916020019161017b565b820191906000526020600020905b81548152906001019060200180831161015e57829003601f168201915b505050505081526020016001820180546101949061089b565b80601f01602080910402602001604051908101604052809291908181526020018280546101c09061089b565b801561020d5780601f106101e25761010080835404028352916020019161020d565b820191906000526020600020905b8154815290600101906020018083116101f057829003601f168201915b50505050508152602001600282015481526020016003820160009054906101000a900473ffffffffffffffffffffffffffffffffffffffff1673ffffffffffffffffffffffffffffffffffffffff1673ffffffffffffffffffffffffffffffffffffffff1681525050815260200190600101906100cf565b50505050905090565b6000600160009054906101000a900473ffffffffffffffffffffffffffffffffffffffff16905090565b600034116102fb576040517f08c379a00000000000000000000000000000000000000000000000000000000081526004016102f290610929565b60405180910390fd5b600160009054906101000a900473ffffffffffffffffffffffffffffffffffffffff1673ffffffffffffffffffffffffffffffffffffffff166108fc349081150290604051600060405180830381858888f19350505050158015610363573d6000803e3d6000fd5b50600060405180608001604052808481526020018381526020014281526020013373ffffffffffffffffffffffffffffffffffffffff16815250908060018154018082558091505060019003906000526020600020906004020160009091909190915060008201518160000190816103db9190610af5565b5060208201518160010190816103f19190610af5565b506040820151816002015560608201518160030160006101000a81548173ffffffffffffffffffffffffffffffffffffffff021916908373ffffffffffffffffffffffffffffffffffffffff16021790555050505050565b600081519050919050565b600082825260208201905092915050565b6000819050602082019050919050565b600081519050919050565b600082825260208201905092915050565b60005b838110156104af578082015181840152602081019050610494565b60008484015250505050565b6000601f19601f8301169050919050565b60006104d782610475565b6104e18185610480565b93506104f1818560208601610491565b6104fa816104bb565b840191505092915050565b6000819050919050565b61051881610505565b82525050565b600073ffffffffffffffffffffffffffffffffffffffff82169050919050565b60006105498261051e565b9050919050565b6105598161053e565b82525050565b6000608083016000830151848203600086015261057c82826104cc565b9150506020830151848203602086015261059682826104cc565b91505060408301516105ab604086018261050f565b5060608301516105be6060860182610550565b508091505092915050565b60006105d5838361055f565b905092915050565b6000602082019050919050565b60006105f582610449565b6105ff8185610454565b93508360208202850161061185610465565b8060005b8581101561064d578484038952815161062e85826105c9565b9450610639836105dd565b925060208a01995050600181019050610615565b50829750879550505050505092915050565b6000602082019050818103600083015261067981846105ea565b905092915050565b61068a8161053e565b82525050565b60006020820190506106a56000830184610681565b92915050565b6000604051905090565b600080fd5b600080fd5b600080fd5b600080fd5b7f4e487b7100000000000000000000000000000000000000000000000000000000600052604160045260246000fd5b610701826104bb565b810181811067ffffffffffffffff821117156107205761071f6106c9565b5b80604052505050565b60006107336106ab565b905061073f82826106f8565b919050565b600067ffffffffffffffff82111561075f5761075e6106c9565b5b610768826104bb565b9050602081019050919050565b82818337600083830152505050565b600061079761079284610744565b610729565b9050828152602081018484840111156107b3576107b26106c4565b5b6107be848285610775565b509392505050565b600082601f8301126107db576107da6106bf565b5b81356107eb848260208601610784565b91505092915050565b6000806040838503121561080b5761080a6106b5565b5b600083013567ffffffffffffffff811115610829576108286106ba565b5b610835858286016107c6565b925050602083013567ffffffffffffffff811115610856576108556106ba565b5b610862858286016107c6565b9150509250929050565b7f4e487b7100000000000000000000000000000000000000000000000000000000600052602260045260246000fd5b600060028204905060018216806108b357607f821691505b6020821081036108c6576108c561086c565b5b50919050565b600082825260208201905092915050565b7f506c65617365207061792067726561746572207468616e203020657468657200600082015250565b6000610913601f836108cc565b915061091e826108dd565b602082019050919050565b6000602082019050818103600083015261094281610906565b9050919050565b60008190508160005260206000209050919050565b60006020601f8301049050919050565b600082821b905092915050565b6000600883026109ab7fffffffffffffffffffffffffffffffffffffffffffffffffffffffffffffffff8261096e565b6109b5868361096e565b95508019841693508086168417925050509392505050565b6000819050919050565b60006109f26109ed6109e884610505565b6109cd565b610505565b9050919050565b6000819050919050565b610a0c836109d7565b610a20610a18826109f9565b84845461097b565b825550505050565b600090565b610a35610a28565b610a40818484610a03565b505050565b5b81811015610a6457610a59600082610a2d565b600181019050610a46565b5050565b601f821115610aa957610a7a81610949565b610a838461095e565b81016020851015610a92578190505b610aa6610a9e8561095e565b830182610a45565b50505b505050565b600082821c905092915050565b6000610acc60001984600802610aae565b1980831691505092915050565b6000610ae58383610abb565b9150826002028217905092915050565b610afe82610475565b67ffffffffffffffff811115610b1757610b166106c9565b5b610b21825461089b565b610b2c828285610a68565b600060209050601f831160018114610b5f5760008415610b4d578287015190505b610b578582610ad9565b865550610bbf565b601f198416610b6d86610949565b60005b82811015610b9557848901518255600182019150602085019450602081019050610b70565b86831015610bb25784890151610bae601f891682610abb565b8355505b6001600288020188555050505b50505050505056fea264697066735822122001b78e95985e2ddb5d34b1dc3d9cb059b7ffd7ae47791d855844a00fa643cf9664736f6c634300081c0033",
  "linkReferences": {},
  "deployedLinkReferences": {}
}